:100000000C942E040C9456040C9456040C94560430
:100010000C9456040C9456040C9456040C945604F8
:100020000C9456040C9456040C9456040C945604E8
:100030000C9456040C9456040C9456040C945604D8
:100040000C9481180C9456040C9456040C94560489
:100050000C9456040C9456040C9456040C945604B8
:100060000C9456040C9456040608205F000000000F
:1000700000000000002F000000000700070000142F
:100080007F147F1400242A7F2A120062640813233D
:1000900000364955225000000503000000001C22D4
:1000A0004100000041221C000014083E0814000812
:1000B000083E0808000000A06000000808080808C2
:1000C000000060600000002010080402003E51495A
:1000D000453E0000427F40000042615149460021F8
:1000E00041454B31001814127F1000274545453912
:1000F000003C4A494930000171090503003649496D
:10010000493600064949291E000036360000000025
:100110005636000000081422410000141414141470
:100120000000412214080002015109060032495919
:10013000513E007C1211127C007F49494936003E35
:1001400041414122007F4141221C007F49494941F0
:10015000007F09090901003E4149497A007F0808EA
:10016000087F0000417F4100002040413F01007FA7
:1001700008142241007F40404040007F020C027F73
:10018000007F0408107F003E4141413E007F090985
:100190000906003E4151215E007F091929460046AB
:1001A000494949310001017F0101003F4040403F82
:1001B000001F2040201F003F4038403F00631408CC
:1001C00014630007087008070061514945430000A7
:1001D0007F414100AA55AA55AA55000041417F0020
:1001E00000040201020400404040404000000305BA
:1001F0000000002054545478007F484444380038AC
:100200004444442000384444487F0038545454182F
:1002100000087E0901020018A4A4A47C007F080441
:1002200004780000447D4000004080847D00007F11
:10023000102844000000417F4000007C041804782E
:10024000007C0804047800384444443800FC24242A
:1002500024180018242418FC007C08040408004812
:100260005454542000043F444020003C4040207C33
:10027000001C2040201C003C4030403C0044281022
:100280002844001CA0A0A07C004464544C440000FE
:10029000107C8200000000FF00000000827C100043
:1002A0000000060909060C102D0D0000008080805A
:1002B00080808000000000000103030303030301AA
:1002C000000000000000000000000000000000002E
:1002D000000000C0C000000000000000028686860A
:1002E000868686020000000081C3C3C3C3C3C381E6
:1002F000000000FC7A0606060606067AFC00007E70
:10030000BCC0C0C0C0C0C0BC7E0000000000000077
:1003100000000078FC000000000000000000003C2D
:100320007E000000028686868686867AFC00007E35
:10033000BDC3C3C3C3C3C381000000000286868659
:100340008686867AFC00000081C3C3C3C3C3C3BDD5
:100350007E0000FC7880808080808078FC00000037
:10036000010303030303033D7E0000FC7A868686B7
:10037000868686020000000081C3C3C3C3C3C3BD19
:100380007E0000FC7A868686868686020000007ED5
:10039000BDC3C3C3C3C3C3BD7E00000002060606BF
:1003A0000606067AFC000000000000000000003C89
:1003B0007E0000FC7A8686868686867AFC00007E31
:1003C000BDC3C3C3C3C3C3BD7E0000FC7A8686869B
:1003D0008686867AFC00000081C3C3C3C3C3C3BD45
:1003E0007E000E182D0D000000000000000000002F
:1003F000000000000000103838383838383838101D
:1004000000000000000000000000000000000000EC
:1004100000000000000000000000000000000000DC
:1004200000000000000000000000000000000000CC
:100430000040E0E0400000000000000002060E0E58
:100440000E0E0E0E06020000000010383838383844
:10045000383838100000000080C0E0E0E0E0E0E064
:10046000C080000000FCFAF60E0E0E0E0E0EF6FA1C
:10047000FC0000EFC78300000000000083C7EF000E
:10048000007FBFDFE0E0E0E0E0E0DFBF7F000000F2
:100490000000000000000000F0F8FC000000000078
:1004A00000000000000083C7EF0000000000000013
:1004B000000000001F3F7F00000002060E0E0E0E1F
:1004C0000E0EF6FAFC0000E0D0B83838383838386C
:1004D0003B170F00007FBFDFE0E0E0E0E0E0C0801E
:1004E0000000000002060E0E0E0E0E0EF6FAFC00C4
:1004F00000001038383838383838BBD7EF000000E3
:1005000080C0E0E0E0E0E0E0DFBF7F0000FCF8F06A
:10051000000000000000F0F8FC00000F173B383826
:1005200038383838BBD7EF0000000000000000006A
:1005300000001F3F7F0000FCFAF60E0E0E0E0E0E9E
:1005400006020000000F173B383838383838B8D06A
:10055000E000000080C0E0E0E0E0E0E0DFBF7F001E
:1005600000FCFAF60E0E0E0E0E0E0602000000EF54
:10057000D7BB383838383838B8D0E000007FBFDF14
:10058000E0E0E0E0E0E0DFBF7F00000002060E0EEA
:100590000E0E0E0EF6FAFC00000000000000000037
:1005A000000083C7EF000000000000000000000012
:1005B0001F3F7F0000FCFAF60E0E0E0E0E0EF6FA2E
:1005C000FC0000EFD7BB383838383838BBD7EF00DD
:1005D000007FBFDFE0E0E0E0E0E0DFBF7F0000FCA5
:1005E000FAF60E0E0E0E0E0EF6FAFC00000F173B7A
:1005F000383838383838BBD7EF00000080C0E0E02A
:10060000E0E0E0E0DFBF7F0000000000000000004D
:10061000000000000000000000000000000080C09A
:1006200000000000000000000000000000000000CA
:10063000000000000000FF000000008090F0F0F0DB
:10064000908000000000000000000000000000009A
:10065000000000000000000000000000000000009A
:10066000000000000000000000000000266F4D594F
:100670007B333F7F41003E7F41417F3E7F7F0101D1
:10068000003E7F49496F2E000000FF00000C0C0C5B
:10069000FFF7F7F7FF0C0C0C000000000000000053
:1006A000000000000000000000000000000000004A
:1006B0000000000080C0E0606060E0E0E00000E07A
:1006C000E0E0606060E0E080000080C0E0606060CA
:1006D000E0C0800020E0E080000080E0E060FFFEFD
:1006E000FEFE000E0E3FFF3F0E0E0080C0E0E0E079
:1006F000E0E0E0C00000FEFEFEE0E0E0E0E0C0C0C0
:10070000000000000000001EFFE180808080C0FF2C
:10071000FF0000FFFF0000000000FFFF001E7FED54
:100720008C8C0C0C8CCCEF2E00C0F17F1F1F73E162
:10073000C080FFFFFFFFC0C0C0C0DFC0C0C0F0F975
:10074000F9CC8C8CCCFFFFFF8F00FFFFFFC0C08077
:10075000C0E1FFFF3F000000000202020E1E133343
:1007600033331B0F0F0202030302020202020303D0
:100770000202020203030303030302020303020251
:10078000020202020303FF0303030383C34343C3C1
:100790008383C34243C38303C3C38343C3C283432B
:1007A000C3830303030303020202020000000000EC
:1007B0000000000000000000000000000000000039
:1007C0000000000000000000000000000000000029
:1007D00000000000000000000000FF001818000FDB
:1007E0001F101018080F1F10101F0F001F1F0000F0
:1007F0001F1F00001F1F000000000000000000007D
:1008000000000000240027002A000000000025004E
:1008100028002B000000000023002600290004040B
:100820000404040404040202020202020303030398
:100830000303010204081020408001020408102074
:10084000010204081020000000070002010000035C
:1008500004060000000000000000960D11241FBED9
:10086000CFEFD8E0DEBFCDBF12E0A0E0B1E0E8E816
:10087000FAE302C005900D92A837B107D9F713E04B
:10088000A8E7B2E001C01D92AA35B107E1F718E070
:10089000CCE5D8E004C02297FE010E943E1DCA3577
:1008A000D107C9F70E94AF1A0C94421D0C940000A6
:1008B000DC011896ED91FC91199790811E968C9110
:1008C0001E978095892380831496ED91FC9115974E
:1008D000442339F490811C968C911C978095892330
:1008E00005C080811C969C911C97892B808320E0F9
:1008F0001296ED91FC91139767FF06C080811B96BD
:100900009C911B97892B06C090811B968C911B97FD
:10091000809589238083ED91FC91119790811A969F
:100920008C911A978095892380830000ED91FC912A
:10093000119780811A969C911A97892B80832F5F3B
:10094000283011F0660FD4CF1896ED91FC911997CD
:1009500080811E969C91892B808308950F931F930D
:10096000CF93DF938C0160E440E00E945804C801FB
:1009700060E840E00E945804C0E0D0E0C80160E0B8
:1009800041E00E945804219681E0C83FD807B1F7A2
:10099000DF91CF911F910F910895662311F06DE0C3
:1009A00001C06CE040E00E94580408958F929F922D
:1009B000AF92BF92CF92DF92EF92FF920F931F936D
:1009C000CF93DF93EC018989FA01E80FF11DE5353A
:1009D000F1050CF06EC08A89869586958695F90199
:1009E000E80FF11DE730F1050CF063C0CC24DD24E5
:1009F00090E4892E820E80E8982E940EA62EBB24B9
:100A000045C0682D6C0DCE0140E00E945804CE0117
:100A1000692D40E00E9458048A89869586958695BE
:100A20002989829FC00111242B89A501421B5109EC
:100A3000849F7001859FF00C949FF00C112484E03A
:100A400090E0E80EF91E00E010E017C0C29EC00161
:100A5000C39E900DD29E900D11248E0D9F1D800F70
:100A6000911FEF85F889E80FF91FE491CE016E2FF1
:100A700041E00E9458040F5F1F4F8989282F30E002
:100A8000021713071CF30894C11CD11C8A89869590
:100A90008695869590E0C816D9060CF4B2CFCE01A3
:100AA00060E440E00E945804CE0160E840E00E940B
:100AB0005804DF91CF911F910F91FF90EF90DF903D
:100AC000CF90BF90AF909F908F900895DC01FB0175
:100AD00050967C936E931F97849151968C93519767
:100AE0003196849152968C93529731968491539675
:100AF0008C9353973196E4915496EC9308952F92EA
:100B00003F924F925F926F927F928F929F92AF929D
:100B1000BF92CF92DF92EF92FF920F931F93DF93DA
:100B2000CF9300D00F92CDB7DEB73C01362ECA016D
:100B3000F9012801C98268E070E00E94D81C462FA4
:100B4000C70187709070892B39F4C70168E070E0A5
:100B50000E94D81C4B0109C0C70168E070E00E94E8
:100B6000D81C4B010894811C911C5F01CC24DD240E
:100B700020E4222E240E80E8380E31C0622D6C0D48
:100B8000C30140E00E945804C301632D40E00E946D
:100B90005804850175011B821A8217C09981992317
:100BA00021F0F8016491C30103C0C301D7016C9126
:100BB00041E00E945804EA81FB813196FB83EA837D
:100BC0000F5F1F4F0894E11CF11C8A819B818415E3
:100BD000950524F30894C11CD11CA40CB51CC814A1
:100BE000D90464F2C30160E440E00E945804C301E8
:100BF00060E840E00E9458040F900F900F90CF9152
:100C0000DF911F910F91FF90EF90DF90CF90BF90F9
:100C1000AF909F908F907F906F905F904F903F909C
:100C20002F9008958F929F92AF92BF92CF92DF92B2
:100C3000EF92FF920F931F93CF93DF936C015B01B1
:100C4000E901DB010D900020E9F78D010150104012
:100C5000061B170BB7E24F305B0779F4FC01818963
:100C600090E09C01209FC001219F900D309F900D2E
:100C7000112444E550E0481B590B37E24E3053072E
:100C8000A1F4D60151968C9190E0809F9001819FB4
:100C9000300D909F300D112484E590E0821B930B62
:100CA00062E070E00E94D81CAB017A0157FF02C0DD
:100CB000EE24FF24CE0168E070E00E94D81C4B01B6
:100CC000C0E0D0E015C0F50161915F01D6015196F9
:100CD0008C9190E0C89FA001C99F500DD89F500DE6
:100CE00011244E0D5F1DC60194010E94D604219669
:100CF000C017D10744F3DF91CF911F910F91FF905F
:100D0000EF90DF90CF90BF90AF909F908F9008951D
:100D10002F923F924F925F926F927F929F92AF92EB
:100D2000BF92CF92DF92EF92FF920F931F93DF93C8
:100D3000CF93CDB7DEB76C970FB6F894DEBF0FBE7A
:100D4000CDBF3C016A017B01290118014115510504
:100D50006105710521F480E38E871F865DC077FDF4
:100D600002C099240AC0F094E094D094C094C11CAD
:100D7000D11CE11CF11C9924939400E010E05E0169
:100D80000894A11CB11CC701B6012AE030E040E084
:100D900050E00E940D1D9B01AC01F501E00FF11F19
:100DA000862F805D80830F5F1F4FC21AD30AE40A2B
:100DB000F50AC701B6012AE030E040E050E00E94A9
:100DC0000D1DC901DA016C017D011C141D041E04F6
:100DD0001F04CCF2A00EB11EF5011082992011F073
:100DE0008DE28E87DE01A00FB11F492D50E0FE017C
:100DF0003E96E40FF51F20E030E08C9181932F5F49
:100E00003F4F119720173107C4F3FE013196E40FCD
:100E1000F51FE00FF11F1586C301BE01625F7F4F12
:100E2000A20191010E9412066C960FB6F894DEBFE3
:100E30000FBECDBFCF91DF911F910F91FF90EF902B
:100E4000DF90CF90BF90AF909F907F906F905F901A
:100E50004F903F902F9008950F931F93CF93DF9360
:100E6000EC01EC81FD8180819C85892B8083EA8166
:100E7000FB8180819B85892B8083E881F98180813A
:100E80009A85892B8083E885F98580819E85892BC9
:100E90008083EE81FF8190818D8580958923808379
:100EA0006AE070E080E090E00E94D718EE81FF8158
:100EB00080819D85892B8083CE0161E240E00E9484
:100EC0005804CE0166EC40E00E945804CE0166E072
:100ED00040E00E945804CE0163E140E00E945804C3
:100EE000CE0160E240E00E945804CE0160E440E0A0
:100EF0000E945804CE0160E840E00E94580400E0DF
:100F000010E0CE0160E041E00E9458040F5F1F4FE7
:100F100081E0083F1807A9F7CE016CE040E00E948D
:100F20005804188A1F86DF91CF911F910F91089561
:100F30006F927F928F929F92AF92BF92CF92DF92E9
:100F4000EF92FF920F931F93CF93DF93DC01862FD5
:100F5000B42EA22EC62FD72FEEE16E2EE8E07E2E05
:100F6000F301EC0FFD1FE491F0E0EE0FFF1F6AE0CC
:100F7000C62E68E0D62EEC0DFD1D6591749111967C
:100F80007C936E9342E3842E48E0942EC80DD91DC5
:100F9000FE0174911A967C931A976B2D752FF301AD
:100FA000E60FF71FE491F0E0EE0FFF1FEC0DFD1DC3
:100FB0004591549113965C934E931297680D791D49
:100FC000FB0154911B965C931B974A2D532FF30101
:100FD000E40FF51FE491F0E0EE0FFF1FEC0DFD1D97
:100FE0002591349115963C932E931497480D591DD5
:100FF000FA0134911C963C931C97A801F301E00F71
:10100000F11FE491F0E0EE0FFF1FEC0DFD1D2591A7
:10101000349117963C932E931697480D591DFA015B
:1010200014911D961C931D976E0C7F1CF3019491D7
:10103000E92FF0E0EE0FFF1FEC0DFD1D259134911F
:1010400019963C932E9318978E0C9F1CF401949143
:101050001E969C9361E00E94E6198B2D61E00E9430
:10106000E6198A2D61E00E94E619802F61E00E9456
:10107000E6198E2D61E00E94E619DF91CF911F9154
:101080000F91FF90EF90DF90CF90BF90AF909F9027
:101090008F907F906F900895AF92BF92CF92DF9222
:1010A000EF92FF920F931F93CF93DF938C01B62E95
:1010B000A72E862F972F9C017901CC24DD24C0E038
:1010C000D0E043C0F801808160E00E940C1AF80172
:1010D000848161E00E940C1AF801848160E00E9422
:1010E0000C1ACBE0D0E0F801848161E00E940C1A78
:1010F000F80182810E94601A0C2E02C0880F991F8D
:101100000A94E2F7C80ED91EF801848160E00E94BB
:101110000C1A2197FFEFCF3FDF0729F7F8018481F1
:1011200061E00E940C1AF80182810E94601AEC01B1
:10113000F801848160E00E940C1AF801808161E06E
:101140000E940C1A0894E108F1081E141F040CF404
:10115000B9CFC6016B2D7A2D0E94D81C882777FD48
:101160008095982F0E94C11BF8012085318542850A
:1011700053850E94BE1A0E948E1B9B01F801868136
:1011800097810097D1F4B901882777FD8095982F32
:101190000E94C11B20E030E040E85EE30E94751C25
:1011A00026E636E646EE5FE30E94751C20E030E05E
:1011B00040E052E40E94BE1A14C0019729F0E0E01A
:1011C00070E080E060E00FC0B901882777FD80956E
:1011D000982F0E94C11B20E030E040E85EE30E94AF
:1011E000751CE62F692FCD2B21F0E0E070E080E840
:1011F0006FEB2E2F372F482F562FB901CA01DF91E1
:10120000CF911F910F91FF90EF90DF90CF90BF9003
:10121000AF9008954F925F926F927F928F929F92BC
:10122000AF92BF92CF92DF92EF92FF920F931F93F4
:101230005C01962E672E842E552E722E432E862FFD
:1012400061E00E94E619882D60E00E94E619872D72
:1012500061E00E94E619892D61E00E940C1AF501F7
:1012600090826182828253827482458217830683D0
:10127000C086D186E286F3861F910F91FF90EF9092
:10128000DF90CF90BF90AF909F908F907F906F90A6
:101290005F904F900895FC0161830895EF92FF9253
:1012A0000F931F93CF93DF93EC0188810E94601A04
:1012B000892B09F48BC099819230D9F0933030F4A6
:1012C000992351F0913009F099C00DC09330A9F0E5
:1012D000943009F093C038C08E85882309F08EC001
:1012E00081E08E878EC08E85882309F089C09E8715
:1012F0006BC08E85882359F518C08E858823A9F088
:101300000E94C9182A853B8540E050E0EA80FB80B6
:101310000C811D812E0D3F1D401F511F26173707C1
:101320004807590708F06AC026C081E08E870E94EE
:10133000C9186A837B838C839D830E94C9186E833E
:101340007F83888799875CC08E85882379F10E9486
:10135000C9182A853B8540E050E0EA80FB800C817B
:101360001D812E0D3F1D401F511F261737074807AF
:10137000590708F045C00E94C9182C853D8540E0FA
:1013800050E0EE80FF80088519852E0D3F1D401F1F
:10139000511F261737074807590780F50E94C918BB
:1013A0006E837F838887998784E02BC081E08E8756
:1013B0000E94C9186A837B838C839D830E94C9180D
:1013C0006E837F838887998782E01BC08E85882300
:1013D00041F08981813011F0843019F41E8683E058
:1013E00010C01E860E94C9186A837B838C839D83EC
:1013F0000E94C9186E837F838887998780E001C027
:1014000081E0DF91CF911F910F91FF90EF900895B0
:101410000F931F938C01FC01168611820E94C9183C
:10142000F80162837383848395830E94C918F8014D
:10143000668377838087918788EE93E0938782879E
:1014400084E690E09587848710821F910F9108951C
:10145000FC01862F608360E00E94E61908952F92B8
:101460003F924F925F926F927F928F929F92AF9234
:10147000BF92CF92DF92EF92FF920F931F93DF9371
:10148000CF9300D000D0CDB7DEB71C0149835A837B
:101490006B837C834801590126013701CB01BA01D6
:1014A00020E030E040E050E00E94221B87FD8EC02B
:1014B000C501B40120E030E040E050E00E94221B72
:1014C00087FD84C0C701B60120E030E040E050E075
:1014D0000E94221B87FD7AC089819A81AB81BC81E1
:1014E000F10180839183A283B383D10114968D92FD
:1014F0009D92AD92BC921797C086D186E286F38604
:1015000064A575A5882777FD8095982F0E94C11B3B
:1015100020E030E04AE754E40E94261B7B018C0166
:1015200089819A81AB81BC81F10184879587A687E7
:10153000B787C501B401A80197010E94751C5B0122
:101540006C01D10150966D937D938D939C9353972D
:10155000C301B201A80197010E94261B7B018C01E7
:10156000F101648B758B868B978B808D918D0197A4
:1015700069F560E070E080E090E029813A814B817C
:101580005C810E94BD1AD1011C966D937D938D9351
:101590009C931F9760E070E080E090E0A6019501C9
:1015A0000E94BD1AF101608B718B828B938B60E07E
:1015B00070E080E090E0A80197010E94BD1AD1017F
:1015C00054966D937D938D939C9357970F900F90A6
:1015D0000F900F90CF91DF911F910F91FF90EF909F
:1015E000DF90CF90BF90AF909F908F907F906F9043
:1015F0005F904F903F902F9008954F925F926F921F
:101600007F928F929F92AF92BF92CF92DF92EF9292
:10161000FF920F931F93CF93DF93EC013A014B019D
:1016200078018901CB01BA01A80197010E94711CC0
:1016300087FF4EC06EA67FA688AA99AAEAAAFBAA2F
:101640000CAB1DAB8EA9882309F442C04C8C5D8C79
:10165000F201A080B180C280D380C601B501A8018B
:1016600097010E94711C181634F4F201E082F18295
:10167000028313830DC0C601B501A40193010E942A
:10168000221B88232CF4F201608271828282938271
:10169000ACA0BDA0CEA0DFA0EAA8FBA80CA91DA904
:1016A000C601B501A80197010E94711C181664F0CB
:1016B000EEA4FFA408A919A9C601B501A8019701C4
:1016C0000E94221B882324F4ECA2FDA20EA31FA3D8
:1016D000DF91CF911F910F91FF90EF90DF90CF900E
:1016E000BF90AF909F908F907F906F905F904F9042
:1016F00008959F92AF92BF92CF92DF92EF92FF92A6
:101700000F931F93CF93DF93EC0199246130710500
:1017100011F4992493948EA991E08927981681F564
:10172000EC8DFD8DE080F18002811381ECA2FDA2A1
:101730000EA31FA3EA8DFB8D80819181A281B381CD
:1017400088A799A7AAA7BBA7AAA8BBA8CCA8DDA8C9
:10175000C801B701A60195010E94711C181664F01A
:10176000AEA4BFA4C8A8D9A8C801B701A601950115
:101770000E94221B882324F4ACA2BDA2CEA2DFA229
:101780009EAADF91CF911F910F91FF90EF90DF9074
:10179000CF90BF90AF909F9008952F923F924F921D
:1017A0005F926F927F928F929F92AF92BF92CF92F1
:1017B000DF92EF92FF920F931F93DF93CF9300D0AE
:1017C00000D000D0CDB7DEB79E838D83DC01D696E6
:1017D0008C91882309F4D9C00E94C91869837A833F
:1017E0008B839C83ED81FE8180A191A129813A8127
:1017F000281B390B84A595A5281739070CF4C5C0FB
:10180000028CF38DE02D2080318042805380AD81A9
:10181000BE815E96ED91FC915F97608171818281BE
:101820009381A20191010E94BD1A3B014C01ED81FF
:10183000FE8120893189428953890E94751CAD81BE
:10184000BE8194962D913D914D915C9197970E9408
:10185000BE1A7B018C01ED81FE8164A375A386A372
:1018600097A3A2A8B3A8C4A8D5A8A60195010E94D1
:10187000711C181674F0ED81FE81A6A4B7A4C0A84F
:10188000D1A8C801B701A60195010E94221B882397
:1018900044F4AD81BE819496AD92BD92CD92DC921E
:1018A0009797C401B301ED81FE8124853585468576
:1018B00057850E94751CAD81BE8194962D913D91F6
:1018C0004D915C9197970E94BE1A7B018C01C201D9
:1018D000B101ED81FE8120A531A542A553A50E944D
:1018E000BD1AAD81BE8154962D913D914D915C9173
:1018F00057970E94751C9B01AC01C801B7010E945B
:10190000BD1A7B018C01ED81FE81D2A8C3A8B4A8C9
:10191000A5A82D2D3C2D4B2D5A2D0E94711C18165B
:10192000BCF0AD81BE819E96DC909E979F96CC9038
:101930009F97D096BC90D097D196AC90C801B70134
:101940002D2D3C2D4B2D5A2D0E94221B882334F423
:101950008D2D9C2DAB2DBA2D7C018D01AD81BE81CD
:101960005C96ED91FC915D97E082F1820283138396
:10197000FD0120A631A642A653A689819A81AB819A
:10198000BC8180A391A3A2A3B3A326960FB6F8941B
:10199000DEBF0FBECDBFCF91DF911F910F91FF90A2
:1019A000EF90DF90CF90BF90AF909F908F907F90FF
:1019B0006F905F904F903F902F9008952F923F929D
:1019C0004F925F926F927F928F929F92AF92BF924F
:1019D000CF92DF92EF92FF920F931F93DF93CF93FB
:1019E00000D000D0CDB7DEB74C017A8369831A01ED
:1019F0003C832B8327013801ED8CFE8C40E050E0C6
:101A000060E070E000E010E02FE733E40E94FD0AA0
:101A100084E690E0F40195A784A786A9882391F134
:101A2000808D918DE816F90669F160E070E080E044
:101A300090E024853585468557850E94BD1AF401BE
:101A4000648775878687978760E070E080E090E024
:101A500020893189428953890E94BD1AF401608B23
:101A6000718B828B938B60E070E080E090E0248942
:101A70003589468957890E94BD1AF401648B758B9C
:101A8000868B978BF401F18EE08EC401B301A20125
:101A900096018501C98CDA8CEB8CFC8C0E942F0A94
:101AA0000E94C918F40124A535A5442737FD4095A7
:101AB000542F621B730B840B950B60A371A382A33D
:101AC00093A316AA358E248E89819A81938F828F53
:101AD0008B819C81978F868F0F900F900F900F9026
:101AE000CF91DF911F910F91FF90EF90DF90CF90FA
:101AF000BF90AF909F908F907F906F905F904F902E
:101B00003F902F900895F999FECF72BD61BDF89A6C
:101B100080B50895F999FECF1FBA72BD61BD40BD71
:101B20000FB6F894FA9AF99A0FBE0895AF92BF9241
:101B3000CF92DF92EF92FF920F931F9389E792E08B
:101B40000E94080A88E892E00E94080A87E992E069
:101B50000E94080A86EA92E066E070E045E050E004
:101B600024E030E003E010E0E2E0EE2EF12C0E94F1
:101B700098076091F2017091F3014091F401509146
:101B8000F5012091F6013091F7010091F8011091D3
:101B9000F901C090BB02D090BC02E090BD02F09071
:101BA000BE028FEB92E00E940A0900D000D000D064
:101BB000E0900A02F0900B0200910C0210910D02CD
:101BC000A0900E02B0900F02C0901002D0901102AF
:101BD0008091120290911302A0911402B09115020B
:101BE000EDB7FEB781839283A383B48316821582F7
:101BF0008BED92E06BEC72E043ED52E02AEF31E0C6
:101C00000E94DE0CE0901602F0901702009118027C
:101C100010911902A0901A02B0901B02C0901C02F1
:101C2000D0901D0280911E0290911F02A09120026F
:101C3000B0912102EDB7FEB781839283A383B48371
:101C40001682158282E193E06FEC72E047ED52E07C
:101C50002EEF31E00E94DE0C8DB79EB706960FB6D0
:101C6000F8949EBF0FBE8DBF1F910F91FF90EF9014
:101C7000DF90CF90BF90AF900895CF93DF930E94F5
:101C80006B19AC01EAE2F2E0C1E0D0E06081718161
:101C9000461757078CF5FE013197EE0FFF1FEE0F29
:101CA000FF1FDF01AA5DBD4F2D913C91E85DFD4F07
:101CB0000190F081E02D421B530BCC0FDD1FCC0FA8
:101CC000DD1FC85DDD4F888199818E1B9F0B621BD4
:101CD000730B9C01429FC001439F900D529F900D3A
:101CE00011240E94D81C6E0F7F1F6F3F710559F0A1
:101CF00054F06FEF70E007C021963496C431D105DF
:101D000029F660E070E0CB01DF91CF9108950F9349
:101D10001F93809108029091090207970297F0F4AF
:101D20000E94C91860934D0370934E0380934F0334
:101D3000909350036091240270912502882777FDCB
:101D40008095982F0E94C11B8B019C0182E193E03A
:101D500040E050E060E070E00E94FD0A82E193E024
:101D600061E070E00E94790B1F910F9108950F932D
:101D70001F93809106029091070207970297F0F453
:101D80000E94C9186093490370934A0380934B03E0
:101D900090934C036091220270912302882777FD73
:101DA0008095982F0E94C11B8B019C018BED92E0C6
:101DB00040E050E060E070E00E94FD0A8BED92E0B0
:101DC00061E070E00E94790B1F910F9108950E94CD
:101DD000B70E0E94870E0895FF920F931F9308E796
:101DE00012E0C80160E070E00E94830D809302025F
:101DF00010920302C80161E070E00E94830D80939D
:101E0000040210920502C80162E070E00E94830D96
:101E10008093060210920702C80163E070E00E94FE
:101E2000830D8093080210920902C80165E070E0FA
:101E30000E94830DF82EC80164E070E00E94830DBB
:101E4000682F8F2D0E94B61AA0E0B0E0BC01CD0132
:101E50000E94BF1B6093FA017093FB018093FC0109
:101E60009093FD01C80166E070E00E94830D90E050
:101E7000A0E0B0E0BC01CD010E94BF1B6093FE0159
:101E80007093FF0180930002909301021F910F91C4
:101E9000FF9008950F931F9308E712E0C80160E0D8
:101EA00070E0409102020E948A0DC80161E070E07A
:101EB000409104020E948A0DC80162E070E04091E6
:101EC00006020E948A0DC80163E070E0409108029A
:101ED0000E948A0D6091FA017091FB018091FC01D2
:101EE0009091FD010E94931B9B01AC01C80164E02D
:101EF00070E0422F0E948A0D6091FA017091FB01FF
:101F00008091FC019091FD010E94931B9B01AC010B
:101F1000C80165E070E0432F0E948A0D6091FE01C8
:101F20007091FF0180910002909101020E94931B29
:101F30009B01AC01C80166E070E0422F0E948A0D4F
:101F40001F910F910895EF92FF920F931F938FEBC4
:101F500092E065E070E00E944C08162F072FF82EE3
:101F6000E92E20E030E040E85FEB0E94221B88234E
:101F700071F486EA92E00E94AE0486EA92E060E0A4
:101F800071E04EE057E220E030E00E941206212F7F
:101F9000302F4F2D5E2DB901CA011F910F91FF9077
:101FA000EF90089580910202909103028F30910585
:101FB00031F08336910599F00E97D9F403C08FE084
:101FC00090E002C08EE090E00E943D0EAA2797FDAF
:101FD000A095BA2FBC01CD010E94C11B02C00E9476
:101FE000A30F6093CB027093CC028093CD029093A9
:101FF000CE0280910402909105028F30910531F05C
:1020000083369105D9F00E9719F503C08FE090E063
:1020100002C08EE090E00E943D0EAA2797FDA09599
:10202000BA2FBC01CD010E94C11B6093CF027093F7
:10203000D0028093D1029093D20208950E94A30F00
:102040006093CF027093D0028093D1029093D2021A
:102050000895AF92BF92CF92DF92EF92FF920F93CB
:102060001F930E94D20F82E193E00E94CD0B8091DA
:102070000802909109020797029708F053C00E9446
:10208000C9187B018C01A0904D03B0904E03C09005
:102090004F03D090500380912402909125029C011F
:1020A000442737FD4095542FD801C7018A199B0951
:1020B000AC09BD09281739074A075B0760F42A0DE8
:1020C0003B1D4C1D5D1D20934D0330934E034093EB
:1020D0004F035093500380914D0390914E03A09174
:1020E0004F03B0915003E81AF90A0A0B1B0BC80101
:1020F000B7010E94BF1B9B01AC016091D702709198
:10210000D8028091D9029091DA020E94711C1816AF
:1021100024F48091080261E003C08091080260E02D
:102120000E940C1A0091080210910902C801099737
:10213000029780F46091D7027091D8028091D90201
:102140009091DA020E948E1B9B01AC01802FB90195
:102150000E948D191F910F91FF90EF90DF90CF900B
:10216000BF90AF900895AF92BF92CF92DF92EF925F
:10217000FF920F931F930E94D20F8BED92E00E946B
:10218000CD0B80910602909107020797029708F005
:1021900053C00E94C9187B018C01A0904903B090E4
:1021A0004A03C0904B03D0904C038091220290913F
:1021B00023029C01442737FD4095542FD801C701C5
:1021C0008A199B09AC09BD09281739074A075B071B
:1021D00060F42A0D3B1D4C1D5D1D20934903309377
:1021E0004A0340934B0350934C03809149039091D1
:1021F0004A03A0914B03B0914C03E81AF90A0A0B69
:102200001B0BC801B7010E94BF1B9B01AC01609171
:10221000D3027091D4028091D5029091D6020E948F
:10222000711C181624F48091060261E003C08091AD
:10223000060260E00E940C1A00910602109107024B
:10224000C8010997029780F46091D3027091D4027B
:102250008091D5029091D6020E948E1B9B01AC0109
:10226000802FB9010E948D191F910F91FF90EF905F
:10227000DF90CF90BF90AF9008950E94B3100E945E
:10228000291008950F931F930E94E70E0E943D119D
:1022900086EA92E00E94AE0486EA92E065E171E08F
:1022A00040E050E020E030E00E9412066091CB0256
:1022B0007091CC028091CD029091CE020E948E1B33
:1022C000AB01BC0186EA92E02FE037E200E010E0CB
:1022D0000E94880686EA92E06FE171E040E050E0FB
:1022E00028E030E00E9412066091FA017091FB0133
:1022F0008091FC019091FD010E948E1BAB01BC01FD
:1023000086EA92E02FE037E208E010E00E948806BB
:1023100086EA92E06AE271E040E050E028E130E0D5
:102320000E9412066091CF027091D0028091D1027A
:102330009091D2020E948E1BAB01BC0186EA92E012
:102340002FE037E208E110E00E94880686EA92E07A
:102350006FE171E040E050E020E230E00E941206C0
:102360006091FE017091FF01809100029091010245
:102370000E948E1BAB01BC0186EA92E02FE037E29F
:1023800000E210E00E94880668EE73E080E090E0D2
:102390000E94D7187BCF89E792E00E944E098130D6
:1023A00089F087E992E00E944E09813011F482E0C1
:1023B000089588E892E00E944E09813011F483E08C
:1023C0000895089581E008951F93CF93DF9386EADF
:1023D00092E00E94AE04C0E0D0E011E001C010E045
:1023E0000E94CB11813041F421978FEFCF3FD80766
:1023F000C1F4C1E0D0E015C0823029F42196C2308A
:10240000D10579F43CC0833051F4209719F40E942F
:10241000821705C0C130D10511F40E94F2161130A7
:10242000F1F686EA92E00E94AE0486EA92E06FE25C
:1024300071E04EE057E220E030E00E941206209763
:1024400019F040E050E002C045E050E086EA92E03A
:102450006AE371E028E030E00E941206C130D10545
:1024600019F040E050E002C045E050E086EA92E01A
:1024700068E471E020E130E00E941206B0CFC0E0D5
:10248000D0E0CFCF1F93CF93DF9386EA92E00E94F4
:10249000AE04C0E0D0E011E001C010E00E94CB111A
:1024A000813041F421978FEFCF3FD80721F5C3E06A
:1024B000D0E021C0823029F42196C430D105D9F46E
:1024C00068C08330B1F4209719F40E94421111C002
:1024D000C130D10519F40E94E4110BC0C230D105FE
:1024E00019F40E94531605C0C330D10511F40E949F
:1024F0009814113091F686EA92E00E94AE0486EAC2
:1025000092E061E571E04EE057E220E030E00E94A9
:102510001206209719F040E050E002C045E050E07C
:1025200086EA92E06BE571E028E030E00E94120656
:10253000C130D10519F040E050E002C045E050E064
:1025400086EA92E06FE271E020E130E00E9412063C
:10255000C230D10519F040E050E002C045E050E043
:1025600086EA92E061E671E028E130E00E9412061E
:10257000C330D10519F040E050E002C045E050E022
:1025800086EA92E06EE671E020E230E00E941206F8
:1025900084CFC0E0D0E0AFCF0F931F930E944A0FCB
:1025A00006EA12E0C8010E94AE04C8016BE771E0C0
:1025B0004EE057E228E130E00E941206C80161E0D7
:1025C0000E94CD0464EF71E080E090E00E94D71893
:1025D000C80160E00E94CD0464EF71E080E090E00B
:1025E0000E94D7180E9442121F910F9108958F9256
:1025F0009F92AF92BF92CF92DF92EF92FF921F9382
:10260000CF93DF9386EA92E00E94AE04C0E0D0E070
:1026100011E049E0842E912C37E0A32EB12C28E064
:10262000C22ED12C9AE0E92EF12C01C010E00E94BC
:10263000CB11813049F421978FEFCF3FD80709F0B4
:1026400062C0C2E0D0E05FC0823031F42196C33076
:10265000D10509F058C045C1833009F051C08091BF
:102660000602909107028830910591F4209709F0B5
:102670003BC1B0920902A092080215C090920902D3
:102680008092080210C0F0920902E09208020BC08A
:102690008730910541F4209709F02FC1D0920902AB
:1026A000C092080212C08930910579F40AC0909254
:1026B00009028092080209C0F0920902E092080221
:1026C00004C0209709F022C10BC00A97B9F405C0D5
:1026D000F0920902E092080211C0209709F01FC190
:1026E000D0920902C092080209C0B0920902A092D9
:1026F000080204C090920902809208020E94CC1243
:10270000113009F094CF86EA92E00E94AE0486EA86
:1027100092E060E871E04EE057E220E030E00E9495
:10272000120686EA92E06BE871E04EE057E228E09C
:1027300030E00E94120680910602909107020897ED
:1027400079F5209719F040E050E002C045E050E0F4
:1027500086EA92E062E971E028E130E00E94120628
:10276000C130D10519F040E050E002C045E050E032
:1027700086EA92E06AE971E020E230E00E94120607
:10278000C230D10519F040E050E002C045E050E011
:1027900086EA92E063EA71E028E230E00E941206E5
:1027A0008091060290910702079779F5209719F01A
:1027B00040E050E002C045E050E086EA92E06CEA7A
:1027C00071E028E130E00E941206C130D10519F015
:1027D00040E050E002C045E050E086EA92E06AE95D
:1027E00071E020E230E00E941206C230D10519F0FB
:1027F00040E050E002C045E050E086EA92E063EA43
:1028000071E028E230E00E94120680910602909169
:102810000702099779F5209719F040E050E002C0CF
:1028200045E050E086EA92E06CEA71E028E130E0B1
:102830000E941206C130D10519F040E050E002C0FC
:1028400045E050E086EA92E062E971E020E230E0A3
:102850000E941206C230D10519F040E050E002C0DB
:1028600045E050E086EA92E063EA71E028E230E079
:102870000E94120680910602909107020A9709F0C1
:10288000D5CE209719F040E050E002C045E050E07E
:1028900086EA92E06CEA71E028E130E00E941206DC
:1028A000C130D10519F040E050E002C045E050E0F1
:1028B00086EA92E062E971E020E230E00E941206CE
:1028C000C230D10519F040E050E002C045E050E0D0
:1028D00086EA92E06AE971E028E230E00E9412069E
:1028E000A5CEC0E0D0E00FCFC130D10509F4C6CEEF
:1028F000C230D10509F4C7CED6CEC130D10509F416
:10290000D6CEC230D10509F4D7CEDFCEC130D10545
:1029100009F4EBCEC230D10509F4DACEEFCEC130E6
:10292000D10509F4E2CEC230D10509F4E3CEE6CEFA
:10293000AF92BF92CF92DF92EF92FF921F93CF930D
:10294000DF938FEF9FEF909307028093060290939F
:1029500009028093080286EA92E00E94AE04C0E079
:10296000D0E011E07AE0A72EB12C69E0C62ED12C80
:1029700057E0E52EF12C01C010E00E94CB11813010
:1029800041F421978FEFCF3FD80781F5C3E0D0E026
:102990002DC0823029F42196C430D10539F57EC08E
:1029A000833011F5209739F488E090E09093070286
:1029B0008093060217C0C130D10529F4F0920702B6
:1029C000E09206020FC0C230D10529F4D09207026E
:1029D000C092060207C0C330D10531F4B09207029D
:1029E000A09206020E94F712113031F686EA92E0B8
:1029F0000E94AE0486EA92E064EB71E04EE057E29A
:102A000020E030E00E94120686EA92E06BE871E076
:102A10004EE057E228E030E00E941206209719F0BD
:102A200040E050E002C045E050E086EA92E06CEA07
:102A300071E020E130E00E941206C130D10519F0AA
:102A400040E050E002C045E050E086EA92E062E9F2
:102A500071E028E130E00E941206C230D10519F081
:102A600040E050E002C045E050E086EA92E06AE9CA
:102A700071E020E230E00E941206C330D10519F067
:102A800040E050E002C045E050E086EA92E063EAB0
:102A900071E028E230E00E9412066ECFC0E0D0E084
:102AA000A5CFAF92BF92CF92DF92EF92FF921F938A
:102AB000CF93DF9386EA92E00E94AE04C0E0D0E0BC
:102AC00011E0AEE0AA2EB12CFFE0CF2ED12CE3E630
:102AD000EE2EF12C01C010E00E94CB11813049F4A0
:102AE00021978FEFCF3FD80709F041C0C1E0D0E078
:102AF0003EC0823029F42196C230D105C1F5C1C053
:102B0000833091F580910202909103028F309105FC
:102B100069F4209709F0B8C0B0920502A0920402AF
:102B20000CC0F0920502E092040207C08E309105BD
:102B300021F4209709F0ADC00CC08336910591F4C3
:102B400005C0F0920502E09204020CC0209709F043
:102B5000A5C0D0920502C092040204C0B092050242
:102B6000A09204020E94CC12113009F0B5CF86EA7F
:102B700092E00E94AE0486EA92E060E871E04EE0E6
:102B800057E220E030E00E94120686EA92E064EC10
:102B900071E04EE057E228E030E00E94120680919A
:102BA0000202909103020F97F9F4209719F040E088
:102BB00050E002C045E050E086EA92E06BEC71E044
:102BC00028E130E00E941206C130D10519F040E042
:102BD00050E002C045E050E086EA92E068ED71E026
:102BE00020E230E00E9412068091020290910302DE
:102BF0000E97F9F4209719F040E050E002C045E04C
:102C000050E086EA92E065EE71E028E130E00E9453
:102C10001206C130D10519F040E050E002C045E095
:102C200050E086EA92E068ED71E020E230E00E9438
:102C3000120680910202909103028336910509F0F9
:102C40004ACF209719F040E050E002C045E050E044
:102C500086EA92E065EE71E028E130E00E9412061B
:102C6000C130D10519F040E050E002C045E050E02D
:102C700086EA92E06BEC71E020E230E00E941206FE
:102C80002ACFC0E0D0E073CFC130D10509F449CFDD
:102C900054CFC130D10509F454CF64CFC130D10530
:102CA00009F45CCF5FCFAF92BF92CF92DF92EF92E9
:102CB000FF921F93CF93DF938FEF9FEF90930302C9
:102CC00080930202909305028093040286EA92E0C8
:102CD0000E94AE04C0E0D0E011E093E6A92EB12C32
:102CE0008EE0C82ED12CBFE0EB2EF12C01C010E0FD
:102CF0000E94CB11813041F421978FEFCF3FD8074D
:102D000031F5C2E0D0E023C0823029F42196C330EF
:102D1000D105E9F464C08330C1F4209729F4F0921E
:102D20000302E09202020FC0C130D10529F4D09213
:102D30000302C092020207C0C230D10531F4B09242
:102D40000302A09202020E945115113081F686EA18
:102D500092E00E94AE0486EA92E064EB71E04EE0FD
:102D600057E220E030E00E94120686EA92E064EC2E
:102D700071E04EE057E228E030E00E941206209712
:102D800019F040E050E002C045E050E086EA92E0F1
:102D900065EE71E028E130E00E941206C130D105F5
:102DA00019F040E050E002C045E050E086EA92E0D1
:102DB0006BEC71E020E230E00E941206C230D105D7
:102DC00019F040E050E002C045E050E086EA92E0B1
:102DD00068ED71E028E230E00E94120688CFC0E082
:102DE000D0E0B5CF0F931F9386EA92E00E94AE0425
:102DF00011E00E94CB11813019F56091FE017091B4
:102E0000FF01809100029091010220E030E040E853
:102E10005FE30E94BE1A6093FE017093FF018093EE
:102E200000029093010220E030E040E050E00E9478
:102E3000221B1816CCF180E090E0A0E0B0E024C0A6
:102E4000823059F56091FE017091FF01809100027E
:102E50009091010220E030E040E85FE30E94BD1A5B
:102E60006093FE017093FF01809300029093010232
:102E700020E030E04FEA53E40E94711C8823A4F064
:102E800080E090E0AFEAB3E48093FE019093FF010D
:102E9000A0930002B093010207C0833011F40E9496
:102EA000CC12113009F0A5CF86EA92E00E94AE0460
:102EB00086EA92E068E471E04EE057E228E030E014
:102EC0000E94120686EA92E06FE171E040E050E075
:102ED00020E130E00E9412066091FE017091FF0136
:102EE00080910002909101020E948E1BAB01BC01F7
:102EF00086EA92E02FE037E200E110E00E948806C7
:102F000010E077CF0F931F9386EA92E00E94AE0401
:102F100011E00E94CB11813019F56091FA01709196
:102F2000FB018091FC019091FD0120E030E040E840
:102F30005FE30E94BE1A6093FA017093FB018093D5
:102F4000FC019093FD0120E030E040E050E00E9461
:102F5000221B1816CCF180E090E0A0E0B0E024C085
:102F6000823059F56091FA017091FB018091FC016A
:102F70009091FD0120E030E040E85FE30E94BD1A3F
:102F80006093FA017093FB018093FC019093FD0123
:102F900020E030E04FEA53E40E94711C8823A4F043
:102FA00080E090E0AFEAB3E48093FA019093FB01F4
:102FB000A093FC01B093FD0107C0833011F40E947F
:102FC000CC12113009F0A5CF86EA92E00E94AE043F
:102FD00086EA92E06AE371E04EE057E228E030E0F2
:102FE0000E94120686EA92E06FE171E040E050E054
:102FF00020E130E00E9412066091FA017091FB011D
:103000008091FC019091FD010E948E1BAB01BC01DF
:1030100086EA92E02FE037E200E110E00E948806A5
:1030200010E077CF0E9442120895AF92BF92CF92E4
:10303000EF92FF920F931F930E94EC0E09E712E0AC
:10304000C80160E00E944B09C80160E10E94280AA3
:1030500007E912E0C80160E00E944B09C80162E183
:103060000E94280A08E812E0C80160E00E944B09AB
:10307000C80161E10E94280A88E061E00E94E61927
:1030800087E061E00E94E6198FE060E00E94E619A7
:103090008EE060E00E94E61989E061E00E94E61996
:1030A0008AE061E00E94E619F6EAAF2EF2E0BF2E58
:1030B000C5010E942C07C50160E070E040E050E0CF
:1030C00028E036E004E510E0E0E3EE2EF12CCC241D
:1030D000C3940E947F0560EA7FE080E090E00E9458
:1030E000D718C5010E94AE04C50168E670E00E94D1
:1030F00066051F910F91FF90EF90CF90BF90AF901A
:1031000008951F920F920FB60F9211242F933F93A1
:103110008F939F93AF93BF938091550390915603E4
:10312000A0915703B0915803309159030196A11D06
:10313000B11D232F2D5F2D3720F02D570196A11D96
:10314000B11D209359038093550390935603A09388
:103150005703B09358038091510390915203A0916B
:103160005303B09154030196A11DB11D80935103E7
:1031700090935203A0935303B0935403BF91AF9124
:103180009F918F913F912F910F900FBE0F901F90A5
:1031900018958FB7F89420915503309156034091BC
:1031A0005703509158038FBFB901CA0108959B017D
:1031B000AC017FB7F8948091510390915203A09194
:1031C0005303B091540366B5A89B05C06F3F19F037
:1031D0000196A11DB11D7FBFBA2FA92F982F882757
:1031E000860F911DA11DB11D62E0880F991FAA1FB6
:1031F000BB1F6A95D1F7BC012DC0FFB7F894809131
:10320000510390915203A0915303B0915403E6B53A
:10321000A89B05C0EF3F19F00196A11DB11DFFBF8E
:10322000BA2FA92F982F88278E0F911DA11DB11D90
:10323000E2E0880F991FAA1FBB1FEA95D1F7861BF2
:10324000970B885E9340C8F2215030404040504078
:1032500068517C4F211531054105510571F60895DE
:10326000789484B5826084BD84B5816084BD85B561
:10327000826085BD85B5816085BDEEE6F0E0808128
:1032800081608083E1E8F0E0108280818260808349
:10329000808181608083E0E8F0E0808181608083CC
:1032A000E1EBF0E0808184608083E0EBF0E08081FE
:1032B00081608083EAE7F0E08081846080838081A0
:1032C0008260808380818160808380818068808348
:1032D0001092C1000895982F8E3008F09E5097707C
:1032E000809176028295880F880F807C892B80934D
:1032F0007C0080917A00806480937A0080917A00CB
:1033000086FDFCCF2091780040917900942F80E0D9
:1033100030E0282B392BC90108951F93CF93DF93F9
:10332000182FEB0161E00E94E619E12FF0E0EA5B63
:10333000F74F8491833051F48091800080688093AE
:103340008000D0938900C09388003CC0843051F441
:1033500080918000806280938000D0938B00C09326
:103360008A0030C0813039F4209729F184B5806813
:1033700084BDC7BD27C0823039F42097E1F084B501
:10338000806284BDC8BD1EC0863041F48091B0000B
:1033900080688093B000C093B30014C0873041F4BC
:1033A0008091B00080628093B000C093B4000AC0E6
:1033B000C038D1051CF4812F60E002C0812F61E08C
:1033C0000E940C1ADF91CF911F910895482F50E071
:1033D000CA018E5C974FFC012491425E574FFA015F
:1033E00084918823C1F0E82FF0E0EE0FFF1FE0503A
:1033F000F84FA591B491662341F49FB7F8948C914E
:10340000209582238C939FBF08959FB7F8948C9149
:10341000822B8C939FBF0895482F50E0CA018A5B8E
:10342000974FFC012491CA018E5C974FFC013491A7
:10343000425E574FFA019491992309F440C0222328
:1034400031F1233021F4809180008F7705C0243042
:1034500031F4809180008F7D8093800018C02130EE
:1034600019F484B58F7704C0223021F484B58F7DA0
:1034700084BD0DC0263021F48091B0008F7705C047
:10348000273029F48091B0008F7D8093B000E92F20
:10349000F0E0EE0FFF1FE65FF74FA591B4916623B2
:1034A00041F49FB7F8948C91309583238C939FBF00
:1034B00008959FB7F8948C91832B8C939FBF0895A8
:1034C000682F70E0CB018A5B974FFC012491CB0100
:1034D0008E5C974FFC014491625E774FFB019491A3
:1034E000992319F420E030E038C0222331F1233051
:1034F00021F4809180008F7705C0243031F48091D1
:1035000080008F7D8093800018C0213019F484B52D
:103510008F7704C0223021F484B58F7D84BD0DC027
:10352000263021F48091B0008F7705C0273029F430
:103530008091B0008F7D8093B000892F90E0880F3C
:10354000991F8C5E974FFC01A591B4918C9120E05E
:1035500030E0842311F021E030E0C90108950E9499
:1035600030190E9415180E941218FDCF70E0382FF4
:1035700020E0622B732BCB0108955058BB27AA275C
:103580000ED075C166D130F06BD120F031F49F3F81
:1035900011F41EF45BC10EF4E095E7FB51C1E92F75
:1035A00077D180F3BA17620773078407950718F07D
:1035B00071F49EF58FC10EF4E0950B2EBA2FA02D5D
:1035C0000B01B90190010C01CA01A0011124FF27D0
:1035D000591B99F0593F50F4503E68F11A16F040CB
:1035E000A22F232F342F4427585FF3CF46953795CA
:1035F0002795A795F0405395C9F77EF41F16BA0B8F
:10360000620B730B840BBAF09150A1F0FF0FBB1F3C
:10361000661F771F881FC2F70EC0BA0F621F731F85
:10362000841F48F4879577956795B795F7959E3FE2
:1036300008F0B3CF9395880F08F09927EE0F979570
:1036400087950895D9D008F481E008950CD00FC172
:1036500007D140F0FED030F021F45F3F19F0F0C008
:10366000511139C1F3C014D198F39923C9F35523EB
:10367000B1F3951B550BBB27AA2762177307840765
:1036800038F09F5F5F4F220F331F441FAA1FA9F31B
:1036900033D00E2E3AF0E0E830D091505040E6950D
:1036A000001CCAF729D0FE2F27D0660F771F881F6E
:1036B000BB1F261737074807AB07B0E809F0BB0B5D
:1036C000802DBF01FF2793585F4F2AF09E3F510581
:1036D00068F0B6C000C15F3FECF3983EDCF386951E
:1036E00077956795B795F7959F5FC9F7880F911DF7
:1036F0009695879597F90895E1E0660F771F881FE3
:10370000BB1F621773078407BA0720F0621B730B95
:10371000840BBA0BEE1F88F7E095089504D06894E7
:10372000B111D9C00895BCD088F09F5790F0B92F3F
:103730009927B751A0F0D1F0660F771F881F991F06
:103740001AF0BA95C9F712C0B13081F0C3D0B1E018
:103750000895C0C0672F782F8827B85F39F0B93F28
:10376000CCF3869577956795B395D9F73EF4909508
:103770008095709561957F4F8F4F9F4F0895E89486
:1037800009C097FB3EF490958095709561957F4FA9
:103790008F4F9F4F9923A9F0F92F96E9BB27939557
:1037A000F695879577956795B795F111F8CFFAF467
:1037B000BB0F11F460FF1BC06F5F7F4F8F4F9F4F98
:1037C00016C0882311F096E911C0772321F09EE8F6
:1037D000872F762F05C0662371F096E8862F70E05C
:1037E00060E02AF09A95660F771F881FDAF7880F36
:1037F0009695879597F90895990F0008550FAA0B8C
:10380000E0E8FEEF16161706E807F907C0F01216F3
:103810001306E407F50798F0621B730B840B950BF6
:1038200039F40A2661F0232B242B252B21F408954B
:103830000A2609F4A140A6958FEF811D811D0895E8
:1038400097F99F6780E870E060E008959FEF80EC53
:10385000089500240A9416161706180609060895F6
:1038600000240A9412161306140605060895092E5C
:103870000394000C11F4882352F0BB0F40F4BF2BCB
:1038800011F460FF04C06F5F7F4F8F4F9F4F08950B
:1038900057FD9058440F551F59F05F3F71F0479501
:1038A000880F97FB991F61F09F3F79F087950895E6
:1038B000121613061406551FF2CF4695F1DF08C005
:1038C000161617061806991FF1CF86957105610522
:1038D00008940895E894BB2766277727CB0197F9CA
:1038E00008958ADF08F48FEF08950BD0C0CFB1DFC1
:1038F00028F0B6DF18F0952309F0A2CFA7CF112446
:10390000EACFC6DFA0F3959FD1F3950F50E0551F86
:10391000629FF001729FBB27F00DB11D639FAA2724
:10392000F00DB11DAA1F649F6627B00DA11D661F73
:10393000829F2227B00DA11D621F739FB00DA11D94
:10394000621F839FA00D611D221F749F3327A00D4E
:10395000611D231F849F600D211D822F762F6A2FEA
:1039600011249F5750408AF0E1F088234AF0EE0F6F
:10397000FF1FBB1F661F771F881F91505040A9F77C
:103980009E3F510570F05CCFA6CF5F3FECF3983EB1
:10399000DCF3869577956795B795F795E7959F5FE3
:1039A000C1F7FE2B880F911D9695879597F908957D
:1039B00097FB092E07260AD077FD04D049D006D000
:1039C00000201AF4709561957F4F0895F6F7909551
:1039D00081959F4F0895A1E21A2EAA1BBB1BFD01E2
:1039E0000DC0AA1FBB1FEE1FFF1FA217B307E407DE
:1039F000F50720F0A21BB30BE40BF50B661F771F36
:103A0000881F991F1A9469F7609570958095909515
:103A10009B01AC01BD01CF01089597FB092E05263E
:103A20000ED057FD04D0D7DF0AD0001C38F45095D3
:103A30004095309521953F4F4F4F5F4F0895F6F7D2
:103A400090958095709561957F4F8F4F9F4F08950A
:103A5000AA1BBB1B51E107C0AA1FBB1FA617B707B4
:103A600010F0A61BB70B881F991F5A95A9F78095D0
:103A70009095BC01CD010895EE0FFF1F0590F491C4
:083A8000E02D0994F894FFCF3A
:103A8800546865726D6F636F75706C6520457272EE
:103A98006F7221210045787472756465723A00531B
:103AA80065742054656D703A20004265643A00548C
:103AB800656D70205365747570004578747275640F
:103AC80065722054656D70004265642054656D70A0
:103AD800004D61696E204D656E7500537461727496
:103AE8000053656E736F72205365747570004F755F
:103AF8007470757420536574757000444F4E45009A
:103B080053656C65637420426564004F7574707505
:103B1800740052656C61792032004D6F736665746C
:103B28002031004D6F7366657420320052656C61F8
:103B38007920310053656C6563742045787472751B
:103B48006465720053656E736F7200546865726DB8
:103B58006973746F72203200546865726D6F636F99
:103B680075706C6500546865726D6973746F722046
:103B780031000B000C000D00010000007A4300002A
:103B8800F042FFFFFFFFFFFFFFFF00009643CDCC91
:103B98004C3D0000964300009643CDCC4C3D0000C0
:103BA800964388138813010049033600FF006B0011
:103BB800D100A000B800D500A6000A0199003F0175
:103BC8008E0074018400A9017C00DE0174001302D8
:103BD8006C00480265007D025D00B2025600E702F3
:103BE8004E001C03460051033D0086033200BB0310
:083BF8002200F00303000100AC
:00000001FF
